:020000040800F2
:10000000800700209D010008E7260008AD1D0008BC
:10001000E5260008A3080008CD2F00080000000016
:10002000000000000000000000000000BB280008E5
:10003000A508000800000000B92800085929000898
:10004000B7010008B7010008B7010008B7010008B0
:10005000B7010008B7010008B7010008B7010008A0
:10006000B7010008B7010008B7010008B701000890
:10007000B7010008B7010008B7010008B701000880
:10008000B7010008B7010008B7010008B701000870
:10009000B7010008B7010008B7010008B701000860
:1000A000B7010008B7010008B7010008B701000850
:1000B000B7010008B7010008B7010008B701000840
:1000C000B7010008B7010008B7010008B701000830
:1000D000B7010008912F0008B52F0008C12F0008B4
:1000E000B7010008B7010008B7010008B701000810
:1000F000B7010008B7010008B7010008B701000800
:10010000B7010008B7010008B7010008B7010008EF
:10011000B7010008E12C0008B7010008B70100088A
:10012000B7010008B7010008B7010008B7010008CF
:10013000B7010008B7010008B7010008B7010008BF
:10014000B7010008B7010008B7010008B7010008AF
:10015000B7010008B7010008B7010008B70100089F
:10016000B7010008B7010008B7010008B70100088F
:10017000B7010008B7010008B7010008000000003F
:10018000B7010008B7010008DFF80CD000F026FB2B
:10019000004800476B4E0008800700200648804753
:1001A00006480047FEE7FEE7FEE7FEE7FEE7FEE75C
:1001B000FEE7FEE7FEE7FEE7FD29000889010008EB
:1001C0002DE9F05F0546002092469B46884606468C
:1001D000814640241BE0284641464746224600F01F
:1001E00047FA53465A46C01A914110D31146184651
:1001F000224600F02EFA2D1A67EB01084F462246E0
:100200000120002100F025FA17EB00094E41201EC5
:10021000A4F10104DFDC484631462A464346BDE8E6
:10022000F09F2DE9F0410024061B254671F10006E0
:1002300005DA01240027D0EB070067EB0101161E49
:1002400073F1000605DA0027D2EB0702012567EB00
:100250000303FFF7B5FF86460E4617469C46AC42A1
:1002600004D00025D0EB050E65EB010624B100207B
:10027000D2EB000760EB030C704631463A4663460A
:10028000BDE8F081D2B201E000F8012B491EFBD29B
:1002900070470022F6E710B513460A460446194691
:1002A000FFF7F0FF204610BD30B50446002003469E
:1002B00000E05B1C934203D2E05CCD5C401BF8D0B5
:1002C00030BD2DE9FE4F804681EA0300C00F0C4689
:1002D000009021F0004123F00045B8EB0200A94155
:1002E00005D24046214690461C460B46024623F066
:1002F0000040104347D0270DC7F30A00C3F30A514B
:100300000290401A019040286BDAC3F3130040F4C6
:10031000801B0098924620B10023D2EB030A63EBC6
:100320000B0B01985946C0F14002504600F091F97C
:1003300006460D4650465946019A00F0A9F910EBC1
:1003400008006141002487EA115284EAE7731A43E6
:1003500040D0009A62B3019A012A4FEA075215DC95
:10036000001B61EB02014FF0004202EA0752CDE9A7
:100370000042001C41F5801132462B4600F0E0F9A6
:1003800003B0BDE8F08F40462146F9E7001B61EB62
:100390000201001C41F5801300185B412018A2F5F2
:1003A000001747EB030140EAD570B6196D4111E023
:1003B0006D084FEA360645EAC0754FEA0752001B42
:1003C00061EB0201001C41F5801149084FEA300041
:1003D0000019514132462B4603B0BDE8F04F00F002
:1003E000A0B90098012240000023D0EB020263EB89
:1003F000E073009821464FEAE074B8EB000061EB2F
:100400000401E9E783F000435BE781F0004158E72E
:100410002DE9FE4F81EA030404F0004421F000417D
:1004200000944FF0000B23F0004350EA01045ED02B
:1004300052EA03045BD0C3F30A54C1F30A552C44B7
:10044000A4F2F3340194A0FB0254C1F3130141F46C
:100450008011C3F3130343F4801301FB024400FB38
:10046000034E840A970A44EA815447EA8357A4FB5F
:10047000076802958D0A05FB07854FEA932C04FB5C
:100480000C542705029D4FEA065847EA1637B5EB8C
:1004900008056EEB070C870E920E47EA811742EAB9
:1004A0008312A7FB0201B6EB0B0164EB00042B0DDA
:1004B00043EA0C335E1844EB1C50DA465146E7FB26
:1004C0000201C5F313044FEA0B3343EA14534FEA16
:1004D0000432019C43EA0603A4F10C040294009C3C
:1004E000CDE900B400F02CF903B0BDE8F08F002096
:1004F0000146F9E72DE9F04D81EA030404F0004BD1
:1005000021F0004514464FF0000A23F0004150EA64
:10051000050220D054EA01021DD0C5F30A57024655
:10052000C5F31303C1F31300C1F30A5640F4801559
:1005300043F48013A7EB0608101BD64608F2FD38DB
:1005400073EB050002D308F1010801E092185B414A
:10055000B8F1000F03DA00200146BDE8F08D00205D
:100560004FF48011064684460EE0171B73EB050717
:1005700005D3121B63EB050306434CEA010C490843
:100580004FEA300092185B4150EA0107EDD152EA80
:10059000030012D082EA040083EA0501084305D073
:1005A000101BAB4106D20122002306E000224FF0CF
:1005B000004302E06FF0010253101AEB06004CEB0F
:1005C000085110EB0A0041EB0B01BDE8F04D00F0C3
:1005D000A8B80EB5C10F80EAE0700844CA07002130
:1005E00040F233438DE80E000A460B4600F0A8F8AF
:1005F00003B000BD00F0004230F000400AD0C10D51
:1006000001F56071C0F3160042EA0151C2084007CB
:100610001143704700200146704701F0004330B499
:1006200021F0004150EA010206D00A0DA2F56072E5
:10063000C1F31301002A02DC30BC00207047440FD4
:1006400044EAC104C100E01830BC00EBC25000F025
:1006500031B8202A04DB203A00FA02F1002070476A
:100660009140C2F1200320FA03F3194390407047F0
:10067000202A04DB203A21FA02F00021704721FAF7
:1006800002F3D040C2F1200291400843194670475E
:10069000202A06DBCB17203A41FA02F043EAE07346
:1006A00006E041FA02F3D040C2F120029140084333
:1006B000194670470029A8BF7047401C490008BF71
:1006C00020F00100704710B4B0FA80FC00FA0CF082
:1006D00050EA010404BF10BC704749B1CCF12004BA
:1006E00021FA04F411FA0CF118BF01212143084347
:1006F000A3EB0C01CB1D4FEA00614FEA102042BF73
:10070000002010BC704700EBC35010440029A4BF68
:1007100010BC7047401C490008BF20F0010010BC0D
:10072000704710B5141E73F1000408DA401C41F143
:10073000000192185B411A4301D120F0010010BD65
:100740002DE9F04D92469B4611B1B1FA81F202E0DB
:10075000B0FA80F220329046FFF77BFF04460F4646
:1007600040EA0A0041EA0B0153465A46084313D0B7
:10077000114653EA010019D0C8F140025046FFF774
:1007800077FF05460E46504659464246FFF761FF41
:10079000084305D0012004E020463946BDE8F08D2D
:1007A0000020054346EAE0762C4337430A98630568
:1007B000E40AA0EB08000022FD0A44EA47540A308C
:1007C00002D500200146E9E7010510196941DDE97C
:1007D000084500196941BDE8F04DA2E7064C074DF8
:1007E00006E0E06840F0010394E807009847103401
:1007F000AC42F6D3FFF7CCFC386C0008586C00080C
:100800002DE9F04D00231A461B1A8A4103DB002014
:100810000146BDE8F08DC1F30A52C1F3130141F462
:1008200080154FF0000BD10702D100186D41521E08
:100830000027044640F2FF11384601EB620A3E46AB
:100840008046024600204FF48011FFF711FFC219C5
:100850007141BB1846EB0100B4EB030C75EB000CC7
:1008600004D3E41A65EB000517460E46241908F177
:1008700001006D4180463428E3DDF91946EB06009E
:10088000091BA84103D24FF0FF32134601E00022BA
:1008900013461BEB070046EB0A51BDE8F04DFFF78E
:1008A00040BFFEE7704772B6FEE72DE9F04104460F
:1008B000876D00F069F9064694F835000025022896
:1008C00006D08020606584F834500120BDE8F081B6
:1008D0002068016821F0160101602068416921F05B
:1008E00080014161206C08B9A06C20B120680168CA
:1008F00021F0080101602068016821F00101016018
:100900000CE000F041F9801B052807D92020606524
:10091000032084F8350084F83450D7E72068006855
:10092000C007EED194F85C103F208840B8600120E9
:1009300084F8350084F834500020C7E790F835106B
:10094000022903D08021416501207047052180F8EC
:1009500035100068016821F0010101600020704736
:1009600070B5044600F010F90546601C02D004483A
:100970000078044400F008F9401BA042FAD370BD8F
:10098000000000202DE9F84FDFF8BCA1002201256E
:100990000AF1040B03264FF00F090BF1040E00BF00
:1009A0000B6805FA02F42340A34270D10F7907F0D7
:1009B0000307012F01D0022F16D187684FEA4208A2
:1009C00006FA08FC27EA0C07D1F80CC00CFA08FC60
:1009D0004CEA070CC0F808C04768A7430C79C4F379
:1009E000001494403C4344600C79E443A4070AD0CB
:1009F000C4684FEA420C06FA0CF7BC438F6807FA4A
:100A00000CF72743C7600C7904F00304022C12D1C1
:100A1000D40800EB840CDCF820405707FF0E09FADD
:100A200007F824EA0804D1F8108008FA07F848EA21
:100A30000408CCF8208004684FEA420C06FA0CF750
:100A4000BC430F7907F0030707FA0CF72743076049
:100A50004C6814F4403F70D03C4C276847F4804702
:100A60002760246822F0030704F480440094384C83
:100A700007EB040CDCF8084897074FEA177809FAE7
:100A800008F7BC43334FB84202D1002724E054E0BA
:100A9000314FB84201D101271EE0304FB84201D199
:100AA000022719E02E4FB84201D1032714E02D4F41
:100AB000B84201D104270FE02B4FB84201D10527DE
:100AC0000AE02A4FB84201D1062705E0284FB84274
:100AD00001D1072700E0082707FA08F72743CCF8D9
:100AE0000878DAF800405746D1F804C09C435FEA22
:100AF000CC3C00D51C433C60DBF800405F46D1F89D
:100B000004C09C435FEA8C3C00D51C433C60DEF88B
:100B100000407746D1F804C09C435FEACC2C00D556
:100B20001C433C60084F0C373C68D1F804C09C4320
:100B30005FEA8C2C00D51C433C60521C102AFFF449
:100B40002FAFBDE8F88F0000003C01404438024060
:100B50000030014000000240000402400008024052
:100B6000000C024000100240001402400018024035
:100B7000001C02400069084000D0012070470AB103
:100B8000816170470904FBE70148806870470000F5
:100B9000000000200248816802781144816070479B
:100BA000000000200B4810B5016841F4007101609D
:100BB000016841F480610160016841F48071016065
:100BC000032000F06FF8002000F006F800F024F891
:100BD000002010BD003C024070B50D4D04464FF49E
:100BE0007A712878B1FBF0F00A490968B1FBF0F09E
:100BF00000F00AFB48B9102C07D200222146501EF3
:100C000000F030F800206C6070BD012070BD000065
:100C1000000000200C0000200A4808B5016841F4DB
:100C200080410160006800F4804000900548001F8A
:100C3000016841F080510160006800F08050009030
:100C400008BD000044380240002809DB00F01F0204
:100C5000012191404009800000F1E020C0F800111E
:100C600070470000F0B40E4B1B680C46C3F3022320
:100C7000C3F10705042D00D90425191D072901D248
:100C8000002300E0DB1E012606FA05F1491E214083
:100C900099409E40761E16403143F0BC02F024BAC3
:100CA0000CED00E0064900F0070208684FF6FF036C
:100CB000184040EA0220034A1043086070470000D1
:100CC0000CED00E00000FA052DE9F0470E460500A6
:100CD00065D0DFF81481D8F80000F7B200F0070003
:100CE000B04207D288F80070D8F8000000F0070082
:100CF000B04254D128683D4C810712D5400703D536
:100D0000206840F4E05020602878000703D5206870
:100D100040F4604020602068A96820F0F00008439B
:100D200020602878C0072DD030496868083901282C
:100D300012D0022813D0032811D00968890700298E
:100D40002DDA216821F0030101432160FFF71CFF28
:100D5000814641F2883A0EE009688903EFE70968A5
:100D60008901ECE7FFF710FFA0EB0901514502D91B
:100D70000320BDE8F0872068696800F00C00B0EB44
:100D8000810FEFD1D8F80010404601F00701B142C1
:100D900007D90770006800F00700B04201D00120B9
:100DA000E7E72878400705D52068E96820F4E05097
:100DB000084320602878000706D52068296920F4B8
:100DC000604040EAC100206000F038F82168084A1D
:100DD000C1F30311515CC840064908600648006829
:100DE000FFF7FAFE0020C4E7003C0240083802404A
:100DF000945E00080C00002004000020044805490F
:100E000000680968044AC1F38221515CC8407047F8
:100E10000C00002008380240A45E00080448054980
:100E200000680968044AC1F34231515CC840704708
:100E30000C00002008380240A45E0008154810B5D8
:100E4000006810F00C02144813D04110042A0FD08F
:100E5000082A0ED10F4C241F2268236802F03F029B
:100E60005B0207D52068C0F38810A0FB010106E0F3
:100E7000084610BD2168C1F38811A1FB00010023C1
:100E8000FFF79EF92168C1F30141491C4900B0FBFD
:100E9000F1F010BD083802400024F4002DE9F84FAD
:100EA00004006ED02078DFF84C93C007A9F1040548
:100EB0004AD009F104000168C1F38101012908D079
:100EC0000068C0F3810002280AD1D9F8000040026E
:100ED00006D52868800337D560680028E1D033E064
:100EE0006068B0F5803F10D0B0F5A02F286810D012
:100EF00020F480302860286820F480202860606812
:100F0000A8B1FFF741FE06460DE0286840F48030A6
:100F1000F4E740F480202860F7E700BFFFF734FED5
:100F2000801B642873D828688003F7D50CE0FFF78E
:100F30002BFE064605E000BFFFF726FE801B642857
:100F4000F0D828688003F7D42078DFF8AC828007D7
:100F50004FF0000A3ED5A748001D016811F00C0FA4
:100F600008D00068C0F3810002280BD1D9F8000036
:100F7000400207D42868800716D5E068012800D110
:100F800012E033E1E068B8B10120C8F80000FFF7D3
:100F9000FBFD064605E000BFFFF7F6FD801B0228BB
:100FA000C0D828688007F7D52868216920F0F800A4
:100FB00040EAC10028600DE0C8F800A0FFF7E4FD9A
:100FC000064604E0FFF7E0FD801B02281FD82868D2
:100FD0008007F7D42078000722D5864F87486169BB
:100FE000703771B101210160FFF7CEFD064604E0C4
:100FF000FFF7CAFD801B022809D838688007F7D59B
:101000000EE0C0F800A0FFF7BFFD064605E082E055
:10101000FFF7BAFD801B02287DD838688007F7D417
:101020002078400768D5DFF8CCB100270BF13C0BE6
:10103000DBF80000C0000BD4DBF8001041F0805159
:10104000CBF80010DBF80000012700F08050009082
:101050006B4E3068C00510D4306840F4807030604A
:10106000FFF792FD009005E0FFF78EFD0099401A12
:10107000022850D83068C005F6D55E4EA0686C36A0
:1010800001280FD00528306810D020F00100306012
:10109000306820F004003060A068B8B1FFF774FD3C
:1010A00000900FE0306840F00100F4E740F00400E9
:1010B0003060F7E7FFF768FD0099411A41F2883088
:1010C000814266D830688007F4D50EE0FFF75CFDFA
:1010D000009007E0FFF758FD0099411A41F288306F
:1010E000814256D830688007F4D42FB1DBF8001065
:1010F00021F08051CBF80010A069C8B33D49091D0B
:101100000968C1F3810102294AD00228504607D05C
:10111000C8F8600000E03CE0FFF736FD04463BE025
:101120004746C8F86000FFF72FFD064605E000BF00
:10113000FFF72AFD801B02282BD828688001F7D4EE
:10114000D4E907010843A16A2E4A490802EB01418C
:10115000626A41EA8211084394F82C1040EA016166
:10116000C9F8001001203866FFF70EFD044606E0BE
:101170003EE000BFFFF708FD001B022809D82868E1
:101180008001F7D534E000BFFFF7FEFC001B02280A
:1011900002D90320BDE8F88F28688001F4D427E045
:1011A0000128F7D0D9F80000E26900F480019142EB
:1011B0001CD1226A00F03F01914217D147F6C0715D
:1011C000626A0140B1EB821F10D1A26A4FF0FF3377
:1011D00000F4403103EB5202B1EB024F06D194F818
:1011E0002C1000F07060B0EB016F01D00120D1E74E
:1011F0000020CFE70438024000004742800E4742FB
:10120000007000400000FFFF10B5401EB0F1807F6D
:1012100001D3012010BD4FF0E02460610F21601761
:1012200001F062FF0020A06107202061002010BDB6
:1012300010B590F83C20012A22D0012280F83C20F1
:10124000CA688C6822F4407222434C6822F480629F
:1012500022430C6822F4006222430C6922F480527B
:1012600022434C6922F400522243C969002322F42C
:1012700080420A4301684A6480F83C30002010BD77
:10128000022010BD70B590F83C20012A32D0012414
:1012900080F83C40022280F83D2003685A689D682F
:1012A00022F070060A6832435A60134B02689A4271
:1012B00014D0B2F1804F11D0104B9A420ED0104B87
:1012C0009A420BD00F4B9A4208D00F4B9A4205D04E
:1012D0000E4B9A4202D00E4B9A4204D1496825F037
:1012E00080031943916080F83D40002180F83C1054
:1012F000084670BD022070BD00000140000400409F
:1013000000080040000C0040000401400040014083
:101310000018004010B5040003D094F83D0010B14F
:1013200007E0012010BD002084F83C00204600F0BA
:101330001FF8022084F83D00211D206801F066FBA3
:10134000012084F8460084F83E0084F83F0084F8C9
:10135000400084F8410084F8420084F8430084F897
:10136000440084F8450084F83D00002010BD0000D2
:1013700008B500680649884208D10648016841F06E
:1013800001010160006800F00100009008BD00004C
:10139000000001404438024070B5044690F83C001B
:1013A0000025012817D0012684F83C60022084F82B
:1013B0003D002068826822F0770222F47F4282603A
:1013C0000868502838D00DDC20284FD005DC90B3B9
:1013D000102811D14AE0022070BD302846D04028A4
:1013E0000AD13BE060282FD070280DD0B0F5805F87
:1013F00003D0B0F5005F12D0012584F83D600020D5
:1014000084F83C00284670BDCB68D1E901212068F2
:1014100001F06DFB2068816841F0770109E0CB683D
:10142000D1E90121206801F062FB2068816841F464
:1014300080418160E1E719E0CA684968206801F0ED
:101440002BFC5021206806E0CA684968206801F03A
:1014500034FC6021206801F054FBCEE7CA6849687B
:10146000206801F019FC40212068F4E72268014659
:101470001046F0E72DE9F0410D46040003D094F842
:101480003D0018B108E00120BDE8F081002084F89B
:101490003C00204600F040F8022084F83D0020681F
:1014A000816844F2070291438160211D206801F0A8
:1014B000ADFA226890689169166A2B68AF69034398
:1014C00040F20330814341EA0721A868EF690843ED
:1014D0004FF6FC418843E96840EA07200143286948
:1014E0002F6A000140EA0730084369686D6926F0F9
:1014F000AA0646EA0515294393602268906154F8CC
:10150000460B0162012004F81F09E0752076E076A1
:101510002077A0750020B7E770B586B00446142187
:101520006846FEF7B6FE214A256800231F49103A97
:1015300002241F48B5F1804F1ED01E4EB54219D16E
:101540000D6845F002050D60096801F00201059182
:10155000116841F001011160116801F0010105916C
:10156000C0210091CDE90143CDE90334694600BFB4
:10157000FFF708FA06B070BD0D6845F001050D6073
:10158000096801F001010591116841F00101116044
:10159000116801F00101059103210091CDE901439A
:1015A0000121CDE903316946E2E7000040380240FD
:1015B000000002400004004070B590F83E60044610
:1015C00090F83F5090F8423090F84320022021B12B
:1015D00004290ED0012E1BD114E0012E18D1012BAD
:1015E00016D184F83E0084F84200012200212068D0
:1015F00020E0012D0CD1012A0AD184F83F0084F8A3
:10160000430014E0012D03D1012B01D1012A01D0A7
:10161000012070BD84F83E0084F83F0084F8420049
:1016200084F8430001220021206801F053FA0122CE
:101630000421206801F04EFA2068016841F00101A0
:101640000160002070BD000010B586B00446142172
:101650006846FEF71EFE0E492068884216D10D48E6
:101660000021026842F010020260006800F01000E1
:1016700005904FF4206000900220CDE90101012087
:10168000CDE9031069460448FFF77CF906B010BDA8
:1016900000000140303802400010024070B504469E
:1016A00090F83C0000260D4601280FD0012084F858
:1016B0003C006AB1042A1DD0082A2FD00C2A3FD042
:1016C0000126002084F83C00304670BD022070BD29
:1016D000206801F01FFA2068816941F008018161EA
:1016E0002068816921F004018161206881692A698B
:1016F000114311E0206801F03DFA2068816941F44E
:10170000006181612068816921F4806181612068C4
:1017100081692A6941EA02218161D2E7206801F0EA
:101720005FFA2068C16941F00801C1612068C169A0
:1017300021F00401C1612068C1692A69114311E0E7
:10174000206801F081FA2068C16941F40061C1613B
:101750002068C16921F48061C1612068C1692A697A
:1017600041EA0221C161ACE710B5040003D094F84E
:101770003D0010B107E0012010BD002084F83C00BE
:10178000204600F01EF8022084F83D00211D20684C
:1017900001F03CF9012084F8460084F83E0084F80A
:1017A0003F0084F8400084F8410084F8420084F847
:1017B000430084F8440084F8450084F83D0000208C
:1017C00010BD704710B50446022249B104290ED05D
:1017D000082913D094F84100012816D0012010BD2B
:1017E00094F83E000128F9D184F83E200FE094F8E7
:1017F0003F000128F2D184F83F2008E094F840002F
:101800000128EBD184F8402001E084F84120012236
:10181000206801F05FF916492068164A884201D015
:10182000904203D1436C43F40043436420688842F0
:1018300013D0B0F1804F10D00F4988420DD00F491E
:1018400088420AD00E49884207D0904205D00D49FF
:10185000884202D00C49884204D1816801F0070116
:10186000062903D0016841F001010160002010BD8C
:101870000000014000040140000400400008004056
:10188000000C0040004001400018004070477047C5
:10189000F8B5016804460868CA684B6910F00F0F74
:1018A0004FF0000559D003F0010602F4907737435A
:1018B00065D0C10705D0D10503D5216C41F00101E8
:1018C0002164410705D5D90703D0216C41F00201FD
:1018D0002164810705D5D90703D0216C41F00401AB
:1018E0002164010707D502F02001314303D0216CA8
:1018F00041F008012164216C00293AD0800604D50A
:10190000900602D5204601F020FA20684069216C3B
:10191000C0F38010090700D460B3204601F0EEF94F
:1019200020684069400621D52068143050E8001F27
:1019300021F0400140E80012002AF5D1A06BA8B1C7
:101940006C490165A06BFEF7F9FF002811D0A06B70
:10195000016D01B0BDE8F040084783060FD593063E
:101960000DD52046BDE8F84001F0EFB92046FFF75D
:101970008EFFF8BD2046FFF78AFF2564F8BD266B71
:101980002023012E79D1C60677D5D60675D50868ED
:10199000486800904869400640D5A16B08684068D7
:1019A0000004000CEAD0A28D8242E7D9E085C86924
:1019B000B0F5807F2DD020680C3050E8001F21F456
:1019C000807140E80012002AF5D12068143050E8F8
:1019D000001F21F0010140E80012002AF5D1206823
:1019E000143050E8001F21F0400140E80012002AA6
:1019F000F5D184F83E30256320680C3050E8001F94
:101A000021F0100140E80012002AF5D1A06BFEF78A
:101A10004CFFA08DE18D401A81B229E0A08DE18DAF
:101A2000401A81B2E08D0028A8D00029A6D02068F5
:101A30000C3050E8002F22F4907240E80026002E6F
:101A4000F5D12068143050E8002F22F0010240E860
:101A50000026002EF5D184F83E30256320680C3036
:101A600050E8002F22F0100240E80023002BF5D1AF
:101A70002046FFF70BFFF8BDFFE705062BD515063F
:101A800029D594F83D002128F5D1A068B0F5805FF4
:101A900001D12069B0B1206A411C2162216800781F
:101AA0004860E08C401E0004000CE084E3D1206814
:101AB000C16821F08001C1602068C16841F0400127
:101AC000C160D8E7206A0088C0F308004860206A37
:101AD000801C2062E5E74006CDD55006CBD5CA680C
:101AE000204622F04002CA6084F83D3000F05DF9E3
:101AF000C1E70000ED2C000870B5040004D094F894
:101B00003D00002510B106E0012070BD84F83C5076
:101B1000204600F023F8242084F83D002068C168A6
:101B200021F40051C160204601F070F9206801697C
:101B300021F4904101612068416921F02A0141614D
:101B40002068C16841F40051C1602564202084F8F8
:101B50003D0084F83E00002070BD0000F0B587B065
:101B6000044614216846FEF794FB5A4958482768F2
:101B70000023584A103902240325874232D11068C5
:101B800040F480101060106800F480100590086820
:101B900040F004000860086800F004000590086840
:101BA00040F0080008600868012600F00800059071
:101BB00088148DE851000827CDE903576946464847
:101BC000FEF7E0FE04208DE85100CDE90357694699
:101BD0004248FEF7D7FE002204213520FFF742F8E5
:101BE000352027E0DFF8F8C007263E48674525D1B5
:101BF000384A121D176847F010071760126802F084
:101C0000100205920A6842F001020A60096802AAFD
:101C100001F0010105914FF4C061CDE9001482E8A3
:101C200068006946FEF7AEFE002205212520FFF779
:101C300019F82520FFF708F807B0F0BDDFF8A8C0B5
:101C400067451FD1176847F400371760126802F420
:101C5000003205920A6842F001020A60096802AF88
:101C600001F0010105910C21CDE9001487E868001D
:101C70006946FEF787FE002203212620FEF7F2FFC9
:101C80002620D7E719488742D6D1106840F4802033
:101C90001060106800F480200590086840F0020091
:101CA0000860086802AF00F0020005904FF4406041
:101CB000CDE9000487E8680069460D48FEF762FE3A
:101CC000002202212720FEF7CDFF2720B2E70000E7
:101CD000005000404038024000080240000C024022
:101CE0000010014000000240004400400048004055
:101CF00000040240704700002DE9F843044690F8C4
:101D00003D001F4616460D4620284CD1C5B1BEB138
:101D100094F83C00012846D0012084F83C004FF0A4
:101D20000008C4F84080212084F83D00FEF72CFF15
:101D3000A6848146E684A068B0F5805F03D004E005
:101D40000120BDE8F883206928B12E465FF0000528
:101D500084F83C800EE00026FAE78021204601F05E
:101D6000DBF8A0B9AEB116F8010B21684860E08C31
:101D7000401EE084E08C4B464FF0000200970028A4
:101D8000EBD14FF04001204601F0C6F830B10320FE
:101D9000D7E735F8020BC0F30800E6E7202084F807
:101DA0003D000020CDE70220CBE77047FEE70000B2
:101DB00010B50F4C002240212046FEF7E0FE00F057
:101DC00049F9002280212046FEF7D9FE00F042F9B1
:101DD000012240212046FEF7D2FE00F03BF900220E
:101DE00040212046FEF7CBFEBDE8104000F032B99E
:101DF00000040240F0B5134887B00024016841F0A8
:101E0000020101600068104F00F0020005902246B8
:101E1000C0213846FEF7B3FE402011250326CDE948
:101E20000005CDE9024669463846FEF7ABFD802045
:101E3000CDE90005CDE9024669463846FEF7A2FD28
:101E400007B0F0BD303802400004024010B50F4C1E
:101E5000002240212046FEF792FE00F0FBF801220E
:101E600080212046FEF78BFE00F0F4F8012240218D
:101E70002046FEF784FE00F0EDF8002240212046C7
:101E8000FEF77DFEBDE8104000F0E4B8000402401B
:101E900070B5154E08250024012280213046FEF73A
:101EA0006EFE16E06006040E002240213046FEF76A
:101EB00066FE00F0CFF8012240213046FEF75FFEBB
:101EC00000F0C8F880213046FEF754FE08B144F017
:101ED00001046D1EEDB2E5D2002240213046FEF72E
:101EE0004EFE204670BD00000004024070B505465D
:101EF0000824134E18E000BFFEF741FE00F0AAF8D8
:101F0000280601D5012200E0002280213046FEF79C
:101F100036FE6806050E00F09DF80122402130468D
:101F2000FEF72DFE00F096F8641EE4B24FF00002BA
:101F30004FF040013046DFD2BDE87040FEF71FBED3
:101F40000004024010B5154C012280212046FEF706
:101F500016FE012240212046FEF711FE00F07AF81D
:101F600080212046FEF706FE00280CD000228021AA
:101F70002046FEF704FE00F06DF880212046FEF7B3
:101F8000F9FD08B1002010BD002280212046FEF797
:101F9000F6FD00F05FF8012010BD000000040240D3
:101FA00010B50F4C002240212046FEF7E8FD00F05E
:101FB00051F8002280212046FEF7E1FD00F04AF8AA
:101FC000012240212046FEF7DAFD00F043F801220D
:101FD00080212046FEF7D3FDBDE8104000F03AB85E
:101FE0000004024070B51A4D0024224640212846C4
:101FF000FEF7C5FD00F02EF8012280212846FEF7ED
:10200000BEFD00F027F8012240212846FEF7B7FD6B
:1020100000F020F80AE000BFFEF7B1FD00F01AF86A
:10202000641CE4B2FA2C01D9002070BD802128463E
:10203000FEF7A0FD00284FF000024FF040012846B7
:10204000EAD1FEF79CFD00F005F8012070BD00000C
:10205000000402400520401E10F0FF00FBD1704735
:1020600010B50D4AA2F10804211D204602F042FFDE
:10207000002810D100F044F804F110022083911ED2
:10208000881E00F00BF804F11602911EBDE8104006
:10209000881E00F01CB810BD880200207CB51446D4
:1020A0000D4606466B4606223B21682000F05AF892
:1020B00000280BD1BDF8001049BA3180BDF80210DC
:1020C00049BA2980BDF8041049BA21807CBD7CB58D
:1020D00014460D4606466B4606224321682000F052
:1020E00041F800280BD1BDF8001049BA3180BDF885
:1020F000021049BA2980BDF8041049BA21807CBD7C
:1021000008B56B4602224121682000F02BF8BDF88B
:10211000000040BA00B2FEF75CFA9FED0D1B53ECD5
:10212000112BFEF7E7F99FED0C1B53EC112BFEF77B
:10213000C8F8FEF772FA00EE100ADFED090A20EE89
:10214000200ABDEEC00A10EE100A00B208BD000061
:102150000000000000407540A4703D0AD743424093
:102160000000C8422DE9F0411D4614460F460646C0
:10217000FFF7E8FE7006000EFFF7B8FEFFF732FF2C
:1021800078B13846FFF7B2FEFFF72CFFFFF7DAFE13
:10219000012000EB4600C0B2FFF7A8FEFFF722FFC8
:1021A0000EE0FFF7FDFE0120BDE8F081012C0DD00F
:1021B000FFF76EFE2870FFF7FBFD641EE4B26D1C96
:1021C000002CF3D1FFF7ECFE0020EDE7FFF760FEF7
:1021D0002870FFF73BFEF0E72DE9F0411E4615465B
:1021E0000F460446FFF7AEFE6006000EFFF77EFEC8
:1021F000FFF7F8FEA8B13846FFF778FEFFF7F2FECA
:10220000002407E0305DFFF771FEFFF7EBFE40B101
:10221000641CE4B2AC42F5D3FFF7C2FE0020BDE877
:10222000F081FFF7BDFE0120F9E700002DE9F0473E
:1022300086B014216846FEF72CF834480024016863
:1022400041F080010160016801F0800105910168A1
:1022500041F004010160016801F004010591016889
:1022600041F001010160016801F00101059101687F
:1022700041F010010160016801F010010591016851
:1022800041F002010160016801F00201059101685D
:1022900041F0080101600068DFF8748000F0080078
:1022A0004FF208060590002231464046FEF767FCD3
:1022B000DFF860A04FF49047002239465046FEF701
:1022C0005EFC0125CDE90054DFF84C906946484694
:1022D0000294FEF757FB06208DE831006946484618
:1022E000FEF750FB0096CDE9015469464046039441
:1022F000FEF748FB0097CDE9015469465046039428
:10230000FEF740FB06B0BDE8F08700003038024021
:1023100000040240000002400008024010B596B0E0
:1023200000240F9410941194129413941C21684665
:102330001494FDF7AEFF202107A8FDF7AAFF2C4853
:102340002A4901600121C0E9011440F2E731C0E9E6
:10235000031444618461FEF7DDFF08B1FEF7A3FAC0
:102360004FF480500F900FA92148FFF715F808B1DE
:10237000FEF799FA1E48FFF7F7F908B1FEF793FA4E
:10238000139413A91A481494FEF77CFF08B1FEF7C2
:102390008AFA6020CDE90004029403940494059421
:1023A0000022694612480694FFF778F908B1FEF753
:1023B0007AFA042269460E48FFF770F908B1FEF771
:1023C00072FA0794089409944FF400500A94CDE9E6
:1023D0000B4007A906480E94FEF72AFF08B1FEF746
:1023E00062FA0348FFF730F916B010BD0000014053
:1023F0007000002010B58CB024216846FDF749FF1D
:102400000024164809944FF080410A94C0E9001452
:102410004FF6FF71C0E90241046184610320CDE9F8
:1024200000040120CDE902040F210491CDE905400B
:10243000CDE9074169460948FFF71CF808B1FEF7E6
:1024400032FA099409A905480A94FEF71BFF0028EF
:1024500001D0FEF728FA0CB010BD0000B800002033
:1024600010B58CB024216846FDF713FF00241648F0
:10247000099414490A94C0E900144FF6FF71C0E9A9
:102480000241046184610320CDE900040120CDE90B
:1024900002040F210491CDE90540CDE907416946C9
:1024A0000948FEF7E7FF08B1FEF7FDF9099409A90D
:1024B00005480A94FEF7E6FE002801D0FEF7F3F97E
:1024C0000CB010BD00040040000100200C4810B505
:1024D0000A4901604FF416514160002181600C22CD
:1024E000C160C0E904128161C161FFF705FB0028EA
:1024F00003D0BDE81040FEF7D6B910BD0050004033
:10250000480100200C4810B50A4901604FF4E13140
:102510004160002181600C22C160C0E90412816128
:10252000C161FFF7E9FA002803D0BDE81040FEF7CB
:10253000BAB910BD001001408C0100200C4810B544
:102540000A4901604FF4E1314160002181600C22B1
:10255000C160C0E904128161C161FFF7CDFA0028B2
:1025600003D0BDE81040FEF79EB910BD0044004006
:10257000D00100200C4810B50A4901604FF4E13148
:102580004160002181600C22C160C0E904128161B8
:10259000C161FFF7B1FA002803D0BDE81040FEF793
:1025A00082B910BD004800401402002010B500F0B0
:1025B0009BF8BDE8104000F06DBD00F069BD000063
:1025C00010B500212DED028B3948FFF7FBF80421EF
:1025D0003748FFF7F7F83C213648FEF7EDFF3C217E
:1025E0003548FEF7E9FF02F037FD344C20700EE06D
:1025F00002F032FD207032A000F04EFD6078401CE9
:10260000C0B260700A2805D83220FEF7A9F92078F8
:102610000028EDD16420FEF7A3F92B480168CA68B1
:1026200042F02002CA600068C16821F01001C16058
:1026300026480168CA6842F02002CA600068C16882
:1026400021F01001C1609FED228AF7EE000AB2EE80
:10265000080AB0EE481A1F4800F0BEF81D48B0EE58
:10266000481AF7EE000AB2EE080A2C3000F0B4F86F
:102670009FED191AF0EE480AB1EE000A174800F073
:10268000ABF8B0EE001AF0EE480AB0EE000A1448BB
:1026900000F0A2F86420FEF763F9F0EE480AB0EE0D
:1026A000480ABDEC028BBDE8104000F049B90000BB
:1026B00070000020B8000020000100201000002061
:1026C0006572726F720A0D008C010020D00100202B
:1026D00000000000C0020020CDCCCC3D440300200F
:1026E00018030020FEE7FEE770B5374C0026374D93
:1026F0002068401C20606168491C61600A282BDB4F
:1027000003F09AFB95ED000AD4ED020A304870EE12
:10271000200A95ED020A00F063F885ED060A95EDB2
:10272000010AD4ED020A2A4870EE600A95ED030A08
:102730002C3000F055F885ED070ABDEEC00A10EE0A
:10274000100A95ED060A01B2BDEEC00A10EE100A9D
:1027500000B200F0B3F826606068142832DB1B4832
:102760006123203890ED020ABDEEC00A10EE100A77
:1027700095ED010A02B2BDEEC00A10EE100A95ED09
:10278000000A01B2BDEEC00A10EE100A00B200F05D
:1027900055FC1048B0F900104A42642192FBF1F256
:1027A00000EE102AB8EEC00A85ED020AB0F9020068
:1027B000404290FBF1F000EE100AB8EEC00A85ED41
:1027C000030A666070BD000024000020A002002003
:1027D000C00200201E00002080EC030A70470000A9
:1027E00070EE600A9FED2F1A2F4AC0ED060A80EDA9
:1027F000031A90ED070ADFED2D1A30EE200A10EED5
:10280000101A80ED070A914201DDB0EE610A10EE68
:10281000101A274A80ED070A914201D9B0EE610AE9
:1028200080ED070AD0ED001AF0EE002A21EEA02A72
:10283000D0ED011A01EE802AD0ED051AB0EE600A43
:1028400001EEE20AD0ED042A30EE220AD0ED022A8F
:1028500002EE802ABDEEC20A80ED080AC0ED041A1D
:10286000C0ED050AF8EEC00AF4EEC10AF1EE10FA66
:1028700001DCB8EEC01ADFED0F0ABDEEC10A80ED33
:10288000080AB8EEC01AB4EEE01AF1EE10FA01D35D
:10289000F8EEC00ABDEEE00A80ED080AB8EEC00A04
:1028A0007047000000007A4400401C460000000011
:1028B00000401CC600007AC4704770472DE9F04103
:1028C0000D461D4C1D4F06004FF480514FF400582B
:1028D0000AD400222046FEF752F901224146204642
:1028E000FEF74DF97E630AE001222046FEF747F924
:1028F000002241462046FEF742F9704278634FF4C9
:1029000080414E00002D0BDB00222046FEF737F9F8
:10291000012231462046FEF732F9BD63BDE8F08161
:1029200001222046FEF72BF9002231462046FEF711
:1029300026F96842B863F1E7000402400000014054
:102940000448B1EE400A80ED020AB1EE600A80ED63
:10295000030A7047A002002010B5FFF727FEBDE86C
:102960001040FEF717B9000030B593B0302168462B
:10297000FDF78FFC14210CA8FDF78BFC1D480025EA
:10298000016841F080510160006800F080501190B2
:102990001948016841F4804101600068022400F494
:1029A0008040119001200090000401908001CDE949
:1029B000064008AA0420A82182E813000B9068466C
:1029C000FEF76CFA08B172B6FEE70CA90F2081E899
:1029D00031004FF4A0500F904FF48050109005211B
:1029E0000CA8FEF771F9002801D072B6FEE713B00B
:1029F00030BD0000403802400070004002480168CD
:102A000041F470010160704788ED00E0F0B50268A4
:102A1000254C264D264E274F274B4FF0804CA04289
:102A200009D0604507D0A84205D0B04203D0B842D3
:102A300001D0984204D122F0700E4A6842EA0E0298
:102A4000A0421BD0604519D0A84217D0B04215D083
:102A5000B84213D0984211D0184DA8420ED0184D4C
:102A6000A8420BD0174DA84208D0174DA84205D058
:102A7000164DA84202D0164DA84203D122F440754B
:102A8000CA682A434D6922F080022A4302608A689C
:102A9000C2620A688262A04201D0984201D10969EB
:102AA000016301214161F0BD0000014000040040CC
:102AB00000080040000C00400004014000400140BC
:102AC000004401400048014000180040001C004044
:102AD0000020004010B501F01F030121046A994055
:102AE0008C430462016A9A401143016210BD10B523
:102AF000846842EA032224F47F440A43224382602A
:102B000010BD826822F070020A4342F00701816022
:102B100070470000F0B5026A22F001020262036A07
:102B200042688469124E24F073050C682C4323F02C
:102B300002058B682B430D4DA84201D0B04205D150
:102B400023F00807CB683B4323F00403A84201D0DD
:102B5000B04205D14D6922F4407215438A692A4377
:102B600042608461496841630362F0BD0000014036
:102B700000040140F0B5026A22F010020262026A0B
:102B8000436884690D6824F4E64444EA05248D68AA
:102B900022F0200242EA05120F4D104EA84201D049
:102BA000B04206D1CF6822F0800242EA071222F03A
:102BB0004002A84201D0B04207D14D6923F44063DE
:102BC00043EA85038D6943EA85034360846149686C
:102BD00081630262F0BD000000000140000401407A
:102BE000F0B5026A22F480720262026A4368C46924
:102BF00022F4007224F073050C68124E2C438D6889
:102C000042EA05220E4DA84201D0B04206D1CF685B
:102C100022F4006242EA072222F48062A84201D034
:102C2000B04207D14D6923F4405343EA05138D693F
:102C300043EA05134360C4614968C1630262F0BDA1
:102C4000000001400004014030B5026A22F48052C5
:102C50000262046A4268C3690D6823F4E64343EAEA
:102C600005238D6824F4005444EA0534084DA84235
:102C700002D0084DA84204D14D6922F4804242EAB4
:102C800085124260C36149680164046230BD00007E
:102C9000000001400004014010B5036A046A24F0FA
:102CA00001040462846924F0F00444EA021423F06D
:102CB0000A020A438461026210BD10B5036A23F060
:102CC000100303628369046A23F4704343EA023207
:102CD00024F0A00343EA01118261016210BD0000EB
:102CE0000148FEF7D5BD00004801002010B5806BFB
:102CF0000021C185C184FEF7CAFD10BD01680C31F9
:102D000051E8002F22F4907241E80023002BF5D106
:102D10000168143151E8002F22F0010241E800233C
:102D2000002BF5D1016B012909D101680C3151E863
:102D3000002F22F0100241E80023002BF5D12021C2
:102D400080F83E1000210163704708B590F83E10EE
:102D5000222901D0022008BD82684FF480539A4294
:102D600001D1016921B1816A9A421BD04AB10AE0BE
:102D70000268816A5268C2F308020A80816A891C6B
:102D800008E0026972B10268526802F07F020A70BC
:102D9000816A491C8162C18D491E0904090CC185E3
:102DA00003D019E002685268F1E70168CA6822F0AE
:102DB0002002CA600168CA6822F48072CA60016891
:102DC0004A6922F001024A61202180F83E10016B1D
:102DD000012903D0FEF78EFF002008BD002101630A
:102DE00001680C3151E8002F22F0100241E8002365
:102DF000002BF5D101680A68D20602D50A68496835
:102E00000091818DFEF742FDE6E7000070B50446B3
:102E100000680169E26821F44051114301612169B0
:102E2000A068E26908436169114308432168CA68E0
:102E300049F20C639A430243CA6020684169A2695F
:102E400021F440711143416131492068884202D028
:102E50003049884202D1FDF7E1FF01E0FDF7CEFFE6
:102E6000E2690023192164253226B2F5004F626819
:102E700028D0A0FB0101930F9200FDF7A1F90146B4
:102E8000B0FBF5F06FF01802504301EB800006EB49
:102E90000010B0FBF5F000F0F002B1FBF5F002EB32
:102EA0000012B1FBF5F06FF01803584301EB8000FE
:102EB00006EB0010B0FBF5F000F00F0021681044A5
:102EC000886070BDA0FB010192185B41FDF778F9A5
:102ED0000146B0FBF5F00201B1FBF5F06FF018030D
:102EE000584301EB800006EBC000B0FBF5F000F0AA
:102EF000F80002EB4002B1FBF5F0584301EB800013
:102F000006EBC000B0FBF5F000F00700D6E70000CC
:102F100000100140001401402DE9F0419846174689
:102F20000E460446069D27E0681C25D02DB1FDF70E
:102F30002BFEA0EB0800A8421ED920680C3050E8F8
:102F4000001F21F4D07140E80012002AF5D120685A
:102F5000143050E8001F21F0010140E80012002A5F
:102F6000F5D1202084F83D0084F83E00002084F84C
:102F70003C000320BDE8F0812068006836EA0000CC
:102F800004D00020B842CFD00020F3E70120F9E7B9
:102F9000064810B50168890603D54068C0B200F044
:102FA00017F8BDE810400248FEF772BC001001405F
:102FB0008C0100200148FEF76BBC0000D00100200E
:102FC0000148FEF765BC000014020020FEE7000087
:102FD00030B5124A10491378C8545B1CDBB2137029
:102FE0000C780020552C14D10A2B14D34B78AA2B23
:102FF0000FD102F10803CC781C700C795C709C1C1A
:103000004D7925708D7965701D881B1D1D80248864
:103010005C801070087030BD580200201200002043
:10302000054A05E013685B06FCD510F8013B5360C8
:10303000491EC9B2F6D270470010014030B4124C9C
:10304000A51C20802980582012FB00F0211D55224C
:1030500008800E480270AA224270052282702278EF
:10306000C270627802712A7842716A7882714A78F5
:1030700002720978C17143720D2181720A21C172F5
:1030800030BC0C21FFF7CCBF140000206C020020E4
:10309000FEF7E6BF704700000FB4054B10B503A95B
:1030A000044A029800F00AFD10BC5DF814FB000011
:1030B000494900086800002003B4019841000098C5
:1030C00050EAC12018BF04204A0D18BF40F001008B
:1030D00040F2FF72B2EB515F08BF40F002000128DE
:1030E00008BF052002B070470907090E002804DB5D
:1030F00000F1E02080F80014704700F00F0000F1AC
:10310000E02080F8141D704770B5C1482DED020B0A
:103110002DED0E8B82B0119D25F000449FEDBEDB9E
:103120009FEDBFEB84423EDBA4F140511098A1F12A
:103130007F6108430FD0BC48844202DC28D110983C
:1031400030B39DED100B02B0BDEC0E8B02B0BDE8AC
:10315000704000F069BC9DED100B53EC1D2B51EC41
:10316000100BFDF755F99DED100B41EC180B53ECCE
:103170001E2B51EC100BFDF74BF953EC182BFDF700
:10318000A0F841EC100B02B0BDEC0E8B02B070BD8C
:10319000012000F08DFC02B0BDEC0E8B02B0BDE84A
:1031A000704000F055BCA1489FEDA18B844256DAD7
:1031B0009DED100BB4F1795F0ADA51EC100BFFF7BB
:1031C0007BFF042808BF00F053FC9DED100BDAE7ED
:1031D00053EC102B51EC100BFDF71AF941EC190BC5
:1031E00095480621B0EE490AF0EE690A784400F0ED
:1031F0009FFB53EC192B51EC100BFDF709F941EC37
:103200001A0B8E48B0EE490AF0EE690A04217844A0
:1032100000F08EFB53EC192B51EC100BFDF7F8F876
:1032200053EC182BFDF74DF841EC100B51EC1A0B39
:1032300053EC102BFDF75EF9CDE900019DED000B7D
:1032400053EC102B9DED100B51EC100BFDF7E0F83B
:103250009DED101B53EC112BFDF733F8D2E09DEDE3
:10326000100B51EC100B01F063FB53EC182BFDF726
:10327000CCF89FED730BCDE9000153EC102B9DEDC5
:10328000000B51EC100BFDF7C3F841EC190B6E4825
:103290000621B0EE490AF0EE690A784400F048FBD6
:1032A00053EC192B51EC100BFDF7B2F841EC1B0B52
:1032B0006648B0EE490AF0EE690A0421784400F04D
:1032C00037FB53EC192B51EC100BFDF7A1F853EC25
:1032D000182BFCF7F6FF41EC1C0B51EC190B02F01C
:1032E00073FD41EC180B5A489FED5BABA04222DC0A
:1032F00053EC1C2B51EC1B0BFDF7FCF8CDE9000146
:103300009DED000B51EC180B53EC102BFDF780F8E2
:1033100053EC182BFCF7D5FF53EC1A2BFDF778F87C
:1033200053EC1D2BFDF76EF853EC1E2BFDF76DF8DB
:1033300041EC100B5FE08DED008B002000909DEDC7
:10334000000B51EC180B53EC102BFCF7BAFF9DED62
:10335000000B41EC1E0B53EC102B51EC100BFDF746
:1033600057F853EC192BFDF750F853EC1E2BFDF7D3
:10337000C1F841EC190B53EC1C2B51EC1B0BFDF766
:10338000B9F841EC1B0B53EC1A2B51EC190BFDF760
:103390003FF853EC1D2BFDF738F841EC190B53ECBB
:1033A0001A2B51EC180BFDF733F853EC1B2BFDF7E0
:1033B0002FF853EC192BFDF725F89DED000B41EC90
:1033C000180B53EC1A2B51EC100BFDF721F89FED65
:1033D000249B53EC192BFDF718F841EC100B51EC22
:1033E000180B53EC102BFDF70DF853EC192BFDF7D0
:1033F0000CF841EC100B002D3FF7C5AE51EC100B53
:1034000081F0004141EC100BBDE60000000000001F
:103410000000F03F00000000075C143326A6913C3A
:10342000182D4454FB21F93F0000F07F0000E03FDD
:10343000000000000000F03F0839000016390000CD
:10344000000000000000E03F5A380000683800002B
:103450003333EF3F00000000000000000000004098
:10346000182D4454FB21E93F70B59B482DED020B0C
:103470002DED068B079D25F00044A04218DC9748EF
:10348000844202DC0AD1069840B19DED060BBDECEA
:10349000068B02B0BDE8704000F0C6BA002DCCBF6C
:1034A0009FED8F0B9FED900BBDEC068B02B070BDB6
:1034B0008F48A04215DD8F48A042D8BF4FF0FF349F
:1034C00058DD9DED060B51EC100BFFF7F5FD0428C0
:1034D00008BF00F0CDFA9DED060BBDEC068B02B0E7
:1034E00070BD9DED060B51EC100B01F021FACDE9FA
:1034F000060181489FED828BA0423CDD8248A042BC
:103500001FDD00249FED82AB9DED060B53EC1A2BC3
:1035100051EC100BFCF7D5FE9DED060B41EC190BA1
:1035200053EC1A2B51EC100BFCF772FF53EC182BD9
:10353000FCF768FF53EC192BFCF7DCFFCDE9060123
:1035400049E09DED060B012453EC182B51EC100BB8
:10355000FCF7B7FE9DED060B41EC190B53EC182B55
:1035600051EC100BFCF74EFF53EC192BFCF7C2FF8C
:10357000CDE906012FE06848A0421FDD02249FED3F
:10358000689B9DED060B53EC192B51EC100BFCF7CF
:103590003FFF53EC182BFCF794FE9DED060B41EC1E
:1035A000180B53EC192B51EC100BFCF72BFF53ECC1
:1035B000182BFCF79FFFCDE906010CE09DED060BF3
:1035C000032453EC102B9FED580B51EC100BFCF720
:1035D00091FFCDE906019DED060B53EC102B51EC4C
:1035E000100BFCF715FF41EC180B53EC182BFCF7F4
:1035F0000FFF41EC190B4E480621B0EE490AF0EEE0
:10360000690A784400F094F953EC182B51EC100B34
:10361000FCF7FEFE41EC180B4648B0EE490AF0EE0E
:10362000690A0521784400F083F953EC192B51EC19
:10363000100BFCF7EDFE41EC100B51EC180B53ECAA
:10364000102B002C0EDAFCF73CFE9DED061B53EC14
:10365000112BFCF7DDFE9DED061B53EC112BFCF747
:10366000D4FE35E0FCF72DFE9DED061B53EC112B2F
:10367000FCF7CEFE41EC100B2F48784400EBC40061
:1036800090ED001B51EC100B53EC112BFCF7BAFE24
:103690009DED061B53EC112BFCF7B4FE41EC100B17
:1036A0002648784400EBC40090ED001B51EC100B51
:1036B00053EC112BFCF7A9FE41EC100B002DA2BF1F
:1036C000BDEC068B02B070BD51EC100B81F00041D7
:1036D00041EC100B01E70000000010440000F07FF7
:1036E000182D4454FB21F93F182D4454FB21F9BFF8
:1036F0000000DC3F0000203E0000F33F000000001F
:10370000000000000000F03F0000E63F0000000065
:1037100000000000000000400080034000000000A6
:10372000000000000000F83F000000000000F0BFB3
:10373000AA35000060350000EA340000A234000021
:1037400070B56B4E2DED040B2DED028B82B0DDF8C4
:103750001CC0DDE905235C422CF000411C4341EA1A
:10376000D474049D22F00040B44205D86C422C432E
:1037700040EAD474B4420BD99DED061B9DED040BB9
:1037800002B0BDEC028B04B0BDE8704000F056B949
:10379000ACF14054A4F17F641C430BD0022404EA32
:1037A000AC7444EAD27405439FED538B9FED542BC8
:1037B00007D015E09DED040B51EC100B00F0F8FB69
:1037C00042E0002C11BF012C9DED040B02B0BDECBA
:1037D000028B04BF04B070BD022C38D0032C3BD048
:1037E0000B439FED491B9FED4A0B0AD0B14218D104
:1037F000B04209D121F0804120F08040079105902E
:103800000FE0002A15DA10E0434B7B44002C08BF80
:1038100093ED000B0DD0012C10D0022C17D0032CEF
:103820001AD0B0421DD1002A03DAB0EE410AF0EE00
:10383000610A02B0BDEC028B04B070BD93ED000BC9
:1038400051EC100B81F0004141EC100BF1E7B0EEB0
:10385000480AF0EE680AECE7B0EE420AF0EE620ABF
:10386000E7E7401A00153C28C8BF8DED000B19DCB6
:10387000BCF1000FBEBF10F13C0F9FED290B8DED89
:10388000000B0FDB9DED060B53EC102B9DED040B95
:1038900051EC100BFCF72EFE01F04AF800F088FB0B
:1038A000CDE90001002C08BF9DED000BC1D0012C1B
:1038B00010D0022C9FED1C0B53EC102B9DED000B38
:1038C00051EC100B0DD0FCF79DFD53EC182BFCF7C1
:1038D00099FDB9E7019880F0004001909DED000B43
:1038E000A7E7FCF78FFD53EC182BFCF78EFDABE739
:1038F0000000F07F00000000182D4454FB21094017
:10390000182D4454FB2109C0182D4454FB21F9BF44
:10391000182D4454FB21F93FD23300000000000071
:103920000000000000000000075C143326A6A13C44
:1039300070B504462DED028B4D1E00EBC500B0EEB8
:10394000408AF0EE608A90ED000B35F0060017D04B
:1039500053EC182B51EC100BFCF75AFD41EC100BFB
:103960006D1E04EBC50090ED001B51EC100B53ECE9
:10397000112BFCF7A6FC41EC100B35F00600E7D14B
:10398000022D36D0042D1CD0062D1CBFBDEC028BA1
:1039900070BD53EC182B51EC100BFCF739FD94ED76
:1039A0000A1B53EC112BFCF78CFC53EC182BFCF787
:1039B0002FFD94ED081B53EC112BFCF782FC41EC1E
:1039C000100B53EC182B51EC100BFCF721FD94ED70
:1039D000061B53EC112BFCF774FC53EC182BFCF773
:1039E00017FD94ED040B53EC102BFCF76AFC41EC33
:1039F000100B53EC182B51EC100BFCF709FD94ED58
:103A0000021B53EC112BFCF75CFC53EC182BFCF75E
:103A1000FFFC94ED001B53EC112BFCF752FCBDECAA
:103A2000028B41EC100B70BD10B553EC102B51EC18
:103A3000100BFCF746FC41EC100B10BD10B553EC1D
:103A4000112B51EC100BFCF73CFC41EC100B10BDA2
:103A50009FED050B10B553EC102B51EC100BFCF740
:103A600049FD41EC100B10BD0000000000000000FB
:103A70009FED050B10B553EC102B51EC100BFCF720
:103A8000C7FC41EC100B10BD00000000000000104E
:103A900002E008C8121F08C1002AFAD17047704717
:103AA000002001E001C1121F002AFBD17047000075
:103AB00001490860704700006C0000202DE9FF4FAD
:103AC0008DB00F460546002606E025280BD0DDE91F
:103AD0000F1290476D1C761C28780028F5D111B084
:103AE0003046BDE8F08F0024A246A1460122EC49F1
:103AF00000E0044315F8013F203B02FA03F00842BE
:103B0000F7D128782A2810D06FF02F022878A0F15A
:103B10003001092914D80AEB8A0102EB410144F073
:103B2000020400EB010A6D1CF0E701CF5FEA000A16
:103B300003D544F40054CAF1000A44F002046D1C99
:103B400028782E2817D115F8010F44F004042A28EC
:103B50000ED06FF02F022878A0F1300109290AD881
:103B600009EB890102EB410100EB01096D1CF2E751
:103B700057F8049B6D1C28786C280FD006DC4C2865
:103B800017D068280DD06A2814D104E0742810D00A
:103B90007A280FD10DE044F400140AE044F48014B4
:103BA00001E044F440146978814202D104F58014A4
:103BB0006D1C6D1C2A786E2A1FD00CDC632A31D054
:103BC00004DC002A8BD0582A11D1A3E0642A68D0E3
:103BD000692A0CD165E0732A2ED004DC6F2A73D0D9
:103BE000702A04D19BE0752A6FD0782A6ED01046D7
:103BF000DDE90F129047761C50E1C4F30250022811
:103C000006D0032809D0042801CF09D0066045E179
:103C100001CFF117C0E9006140E101CF06803DE12D
:103C200006703BE117F8040B8DF8000000208DF8BA
:103C30000100EB46012003E057F804BB4FF0FF30D2
:103C400061074FF0000102D40DE008F10101884640
:103C500049450FDA8045F8DB1BF808100029F4D13C
:103C600008E008F1010188468142FADB1BF80810E0
:103C70000029F6D1DDE90F23AAEB08008146214691
:103C800000F036F9304400EB080604E0DDE90F12DD
:103C90001BF8010B9047B8F10108F7D221464846BE
:103CA000F7E00A21C4F302534FF0000B0891022BF6
:103CB00004D001CFC117032B09D00AE0FF1D27F064
:103CC0000707F7E8020108E032E01FE020E000B259
:103CD000C117042B01D140B2C117031E71F10003BB
:103CE00007DA4FF0000CD0EB0C006CEB01012D2338
:103CF00002E0230504D52B238DF82430012303E0B3
:103D0000E30701D02023F7E7984658E00A2110E0A6
:103D100010210EE010204FF0000B08900CE0102155
:103D20004FF0000B44F004044FF00809089103E041
:103D300008214FF0000B0891C4F30253022B04D06A
:103D400001CF0021032B06D006E0FF1D27F0070757
:103D5000F7E8020103E080B2042B00D1C0B24FF0BB
:103D6000000823072BD5702A07D0DDF820C08CF07F
:103D7000100C5CEA0B0C05D00EE040238DF82430CB
:103D8000012308E050EA010306D030238DF82430E7
:103D90008DF8252002239846DDF820C08CF0080C11
:103DA0005CEA0B0C0BD150EA010301D1630706D585
:103DB00030238DF824304FF00108A9F10109582A69
:103DC00004D038A20B9208AA0A920BE03AA2F9E7B3
:103DD0005B46089AFCF7F4F90B9B9B5C0A9A521E0F
:103DE0000A92137050EA0102F2D10A98ADEB00007A
:103DF00000F1200B600702D524F4803401E04FF07D
:103E00000109D94502DDA9EB0B0000E0002000EB21
:103E10000B0141440890AAEB010AE00306D4DDE956
:103E20000F232146504600F063F806444FF0000986
:103E300008E009A911F80900DDE90F12904709F11E
:103E40000109761CC145F4DBE0030CD5DDE90F2345
:103E50002146504600F04CF8064404E0DDE90F121C
:103E600030209047761C0899481E08900029F5DC00
:103E700008E00A980A990078491C0A91DDE90F12B6
:103E80009047761CBBF10001ABF1010BF1DC214640
:103E90005046DDE90F2300F019F806446D1C1BE6BF
:103EA0000928010030313233343536373839616210
:103EB00063646566000000003031323334353637D4
:103EC0003839414243444546000000002DE9F041A5
:103ED000044600251E461746880404D405E03946EA
:103EE0002020B0476D1C641EF9D52846BDE8F0813E
:103EF0002DE9F041044600251E469046C80301D531
:103F0000302700E02027880404D505E041463846E4
:103F1000B0476D1C641EF9D52846BDE8F08100004D
:103F2000FEB506460D460024684600F01BFD002243
:103F30009FED1B1A6B46012156F8227055F822009E
:103F4000381A00D5404200EE100A03EB8200B8EEAA
:103F5000C00AD0ED000A20EE010AF5EEC00AF1EE2B
:103F600010FA0DD0C0EE201AB7EE000A0D4F31EE58
:103F7000C00AB0EEC00A10EE100AB84207DC09E031
:103F800010EE100A084F3844084FB84202D301FA25
:103F900002F00443521C032ACEDB2046FEBD000083
:103FA00000008037295C0F3E666666C19A99D90089
:103FB00010B541EC100BFFF757FA51EC100B10BD88
:103FC00008B560B120208DF8000028208DF8010090
:103FD00030208DF8020038208DF8030004E0A32281
:103FE00004216846FCF74EF96A46042140F69E20FB
:103FF00001F050FE01F00EFB08BD00003EB5044686
:1040000002208DF80000CA208DF80100E3208DF811
:10401000020009208DF803006A460421682001F09F
:1040200039FEA3208DF80000610609D5C0218DF866
:104030000110C8218DF80210C2218DF8031005E08F
:104040008DF801008DF802008DF8030014F4C07F94
:1040500009D0C4218DF80410CC218DF80510C6219B
:104060008DF8061005E08DF804008DF805008DF838
:1040700006008DF808008DF807008DF809006A46E3
:104080000A2140F6A72001F005FEA0074FF0D80551
:1040900003D020208DF8000001E08DF800506A4622
:1040A000012140F6B62001F0F5FDA00601D5012062
:1040B00000E0002000F08EF814F4C07F1ED0E00570
:1040C0000AD5B2208DF800008B208DF80100B620B3
:1040D0008DF802009B2009E0B0208DF800008020C0
:1040E0008DF80100B4208DF8020090208DF80300B7
:1040F0006A46042140F6A22001F0CCFDE1074FF40E
:104100000B6022D0F8218DF800106A46012101F0E1
:10411000C1FDFA21072000F03BFB072000F006FB61
:10412000012000F023FB642000F0E2FB4FF4FA7062
:1041300000F0EEFBC821254800F0C0FA282000F06E
:10414000D5FA0A2000F0E2FA05E08DF800506A4640
:10415000012101F09FFDA00703D5D9208DF80000B3
:1041600001E08DF800506A46012140F23D7001F0F7
:1041700091FD600701D5012000E0002000F048F823
:10418000E00601D5012000E00020FFF719FF104DE7
:1041900044F00800688101F03DFA0020A873600631
:1041A00001D50620A87314F4C07F02D0A87B801D1F
:1041B000A87314F0140F02D0A87B1030A873A007C6
:1041C00002D0A87B001DA87300203EBD09E3CA02EF
:1041D000700300200EB54FF4976310B106A107C914
:1041E00001E008A207CA8DE807006A4609211846BF
:1041F00001F050FD0EBD0000B8AAB38DB4980D3586
:104200005D000000B8AAAAAAB088C3C5C700000014
:1042100008B560B1C0208DF80000C2208DF8010003
:10422000C4208DF80200C6208DF8030004E08B2224
:1042300004216846FCF726F86A46042140F69820D7
:1042400001F028FD01F0E6F908BD0000C8234FF495
:104250008062024940F6F63001F0BEB8FC5E00080C
:104260002DE9FF4F89B01746DDE9165200244D4E67
:10427000884681462C80A246B07B694601F058F9F9
:104280004FF0FF3B18B158460DB0BDE8F08F708974
:1042900010F0140F3ED0009909BA21F0FF029DF8EA
:1042A00003100A433A6001999DF8073009BA21F0DA
:1042B000FF0119437960029B9DF80B401BBA23F064
:1042C000FF032343BB60039C121424BA24F0FF0CA9
:1042D0009DF80F4009144CEA040C1024C7F80CC0D8
:1042E0001B144FEA2C4712FB02F211FB012113FBB6
:1042F00003F217FB07221144A1F17061B1F1007FB5
:1043000004D901F087F9A5F800A0BCE7298841F499
:10431000807129804206694611D50A19A41D1388A7
:104320005BBAA8F8003053885BBAA8F802309288CC
:1043300052BAA8F804202A8842F008022A8010F411
:10434000C07F11D00A19A41D13885BBAA9F80030E8
:1043500053885BBAA9F80230928852BAA9F80420AF
:104360002A8842F070022A80800716D00C44E07838
:1043700000F0C00500F03F016078C00706D0C80813
:1043800001F007013268491C02B1904760780007CC
:1043900003D5716809B1A80988470C9800F07EFD23
:1043A000002071E7700300202DE9FF41044603A8B7
:1043B00000F0C2FEBDF80C00410CC3032F48028977
:1043C00002F00300550754F8200000D54042C2F324
:1043D000C105960654F8255000D56D42C2F38116EA
:1043E000D20554F8264000D56442A0FB0367C217EB
:1043F00002FB037200FB0120820042EA9670A5FBDB
:104400000367EA1702FB037205FB0122950045EAE8
:104410009672A4FB0367E51705FB037304FB0131E8
:104420008B0043EA9671030E8DF80030030C8DF873
:104430000130030A8DF802308DF80300100E8DF85C
:104440000400100C8DF80500100A8DF80600080E07
:104450008DF80800080C8DF80900080A8DF80A008C
:104460008DF807208DF80B106A460C214FF425704B
:1044700001F010FC04B0BDE8F081000070030020E2
:1044800030B5044613A285B007CA8DE807004FF087
:10449000FF35C82C16D8C820B0FBF4F1491E080A15
:1044A0008DF80C008DF80D1003AA022140F21620A1
:1044B00001F0F0FB30B96A460C2140F6C12001F052
:1044C000E9FB10B1284605B030BD054884810020C5
:1044D000F9E70000FEF2ABC4AAF1DFDFBBAFDFDF1C
:1044E00070030020F8B53049098901F0030250F843
:1044F00022404A0700D56442C1F3C1028B0650F83E
:10450000222000D55242C1F3811350F82330C80550
:1045100000D55B42254984FB0140850045EA947043
:1045200082FB0142A40F44EA820483FB0121950F20
:1045300045EA8105010E8DF80010010C8DF801107F
:10454000010A8DF802108DF803006A4604214FF429
:10455000747001F09FFB4FF0FF3688B9200E8DF884
:104560000000200C8DF80100200A8DF802008DF863
:1045700003406A4604214FF4757001F08BFB08B1CB
:104580003046F8BD280E8DF80000280C8DF801008B
:10459000280A8DF802008DF803506A4604214FF472
:1045A000767001F077FBF8BD7003002009E3CA02C2
:1045B0002DE9FF4104463CA004F00303006802908B
:1045C0003AA0006803903AA006683AA0056802A8DD
:1045D000C15C8DF80010C4F3C101425C8DF801206C
:1045E000C4F38112805C8DF8020003A8C35C8DF8CF
:1045F0000430415C8DF80510805C8DF806006A4639
:10460000032140F2264001F045FB4FF0FF37E0BBAD
:1046100001AA032140F22A4001F03CFBA8BBCDE9EE
:10462000006560070BD59DF8000040F001008DF893
:1046300000009DF8040040F001008DF80400A00681
:104640000BD59DF8010040F001008DF801009DF8A8
:10465000050040F001008DF80500E0050BD59DF840
:10466000020040F001008DF802009DF8060040F0C5
:1046700001008DF806006A4603214FF4886001F0BE
:1046800009FB10B901AA032100E004E040F2314027
:1046900001F000FB18B1384604B0BDE8F0810648CF
:1046A00004810020F8E700004CCD6C000CC92C0000
:1046B0003656760026466600700300204FF47A7264
:1046C00090FBF2F008B54843010E8DF80010010C84
:1046D0008DF80110010A8DF802108DF803006A466A
:1046E00004214FF4AE7001F0D5FA08BD0521B0FBEE
:1046F000F1F008B5010A8DF800108DF801006A4646
:1047000002214FF4AD7001F0C5FA08BD0521B0FBE0
:10471000F1F008B5010A8DF800108DF801006A4625
:1047200002214FF4AC7001F0B5FA08BD08B50021C4
:104730008DF80010C10702D030218DF800108107DC
:1047400005D59DF8001041F00C018DF800104007D0
:1047500005D59DF8000040F003008DF800006A4682
:1047600001214FF4A47001F095FA08BD08B560B1BD
:10477000042800D90420401E8DF800006A4601215B
:1047800040F24F1001F086FA08BD0120F3E7000067
:1047900070B504462DED028B82B040074FF0FF3517
:1047A0007ED0B1F5C86F7BD800EE101AB8EE400A83
:1047B000DFED460A01A880EE208A00F09FFC9DF8FC
:1047C0000400022806D0042810D0082835D010286C
:1047D00074D13EE09FED3E0A28EE000ABCEEC00A0E
:1047E00010EE100A9FED3B0A82B20AE09FED3A0AF2
:1047F00028EE000ABCEEC00A10EE100A9FED370A40
:1048000082B228EE000A6E46BCEEC00A10EE100A14
:1048100081B2100A8DF800008DF80120080A8DF889
:1048200002008DF80310E00726D0324602214FF433
:10483000EA7001F02FFA98BB17E09FED290A28EEE5
:10484000000ABCEEC00A10EE100A9FED260A82B2E2
:10485000D7E79FED250A28EE000ABCEEC00A10EE4D
:10486000100A9FED220A82B2CBE7B21C02214FF45C
:10487000927001F00FFA98B9A0070DD56A4602218F
:104880004FF4EC7001F006FA50B9B21C02214FF45B
:10489000947001F0FFF918B9600714D56A4600E07A
:1048A0000CE002214FF4EE7001F0F4F930B9B21CC3
:1048B00002214FF4967001F0EDF920B1284602B0C4
:1048C000BDEC028B70BD0020F9E7000000004843FA
:1048D0000000804600004046000000460000C04541
:1048E0000000804500004045000000450000C04435
:1048F0000521B0FBF1F008B5010A8DF800108DF824
:1049000001006A4602214FF4EF7001F0C3F908BDBF
:104910000521B0FBF1F008B5010A8DF800108DF803
:1049200001006A4602214FF4ED7001F0B3F908BDB1
:1049300082B0CDE9000121F0004001909DED000B17
:1049400002B051EC100B704738B504468DF80000EA
:104950000223012269460248FDF7CEF9204638BD00
:104960008C0100201FB50446274802AB0422406892
:104970000D210078FDF7F6FB10B1072004B010BD43
:104980009DF808101C2000EAD1029DF80B10DFED05
:104990001F0AC1F301131A438DF800209DF8092066
:1049A000C1F3810300EAD2021A438DF801209DF879
:1049B0000A2001F0030100EAD20008439FED141A17
:1049C0009FED140A8DF8020000216A46505C002811
:1049D00004EB810002D080ED001A09E0C0ED000A6E
:1049E0000CE000BFD0ED001A61EE801AC0ED001A95
:1049F000535C5B1E13F0FF035354F3D1491CC9B23F
:104A00000329E3D30020B9E73000002000000000B4
:104A10007B14AE3E1D5A843F2DE9FE4F0546012012
:104A2000C14E8DF800004FF000088DF8018030680D
:104A30000C461746817C70686B4602220078FDF7B1
:104A4000CBFB4FF0FF3A00287AD1C820FBF788FF54
:104A50008DF8008030686B460122C17B7068007859
:104A6000FDF7BAFB0028EFD130686B46012241798F
:104A700070680078FDF7B0FB0028E5D130686B4620
:104A80000122817C70680078FDF7A6FB0028DBD14D
:104A900030686B460122C17D70680078FDF79CFB91
:104AA0000028D1D130686B46012201797068007806
:104AB000FDF792FB0028C7D14FF00C098DF800904C
:104AC00030686B460122017970680078FDF784FB3D
:104AD000002835D10F20FBF743FFB06A6B46012257
:104AE000407A8DF800003068817870680078FDF7B2
:104AF00073FB002824D1B06A6B460122007A8DF83E
:104B000000003068417870680078FDF765FB002888
:104B100073D1B06A807A0FB140F0E0008DF80000E8
:104B200030686B460122817970680078FDF754FB8C
:104B3000002862D12FB1B06AC07A40F0E00001E0F5
:104B40004AE018208DF8000030686B460122C179D8
:104B500070680078FDF740FBF0BB17B1C820FBF789
:104B6000FFFE40208DF8000030686B46012201797D
:104B700070680078FDF730FB70BB78208DF800007E
:104B800030686B460122417970680078FDF724FB9C
:104B900010BB3220FBF7E4FE8DF8008030684746FA
:104BA0006B464179706801220078FDF715FB98B9D2
:104BB00031687068B046897A00786B460222FDF74A
:104BC000D1FA48B9BDF80000AF6040BAB0FBF9F0C7
:104BD0006F60C6B22F6000E00FE0A76067602760DB
:104BE000002739E0D8F80010D8F804006B46C97ADD
:104BF00000780C22FDF7B6FA10B15046BDE8FE8FE2
:104C0000BDF80000236840BA02B2BDF80200BDF84A
:104C100004101A44226040BA626800B21044606016
:104C200049BAA06809B20844A060BDF806002B6824
:104C300040BA02B2BDF808001A4440BA01B2BDF849
:104C40000A002A606A6840BA11446960A96800B223
:104C500008447F1CFFB2A860B742C3D328688322F0
:104C6000C117090441EA104100040023FBF7D9FAF7
:104C700032460023FBF7D5FA286068688322C11703
:104C8000090441EA104100040023FBF7CAFA324646
:104C90000023FBF7C6FA6860A8688322C1170904DD
:104CA00041EA104100040023FBF7BBFA324600231F
:104CB000FBF7B7FAA86020684FF40065C117090434
:104CC00041EA104100042A460023FBF7AAFA3246C3
:104CD0000023FBF7A6FA206060682A46C117090482
:104CE00041EA104100040023FBF79BFA32460023FF
:104CF000FBF797FA6060A0682A46C117090441EAE9
:104D0000104100040023FBF78CFA32460023FBF726
:104D100088FAA060002802DDA0F5803001E000F5EF
:104D20008030A060002069E730000020F8B506461A
:104D30002E480D46002440686B46032200780D2162
:104D4000FDF710FA08B10720F8BD9DF80000002219
:104D500000F01F008DF800009DF801009FED241A5F
:104D600000F01F008DF801009DF802006B4600F076
:104D70001F008DF80200012156F8220055F822701C
:104D8000C01B00D5404200EE100A985CB8EEC00A85
:104D900060EE010AD0B1B3EE090ADFED161A01E0A8
:104DA00020EE210AC0B2401E10F0FF009854F7D147
:104DB000C0EE801AB7EE000A0F4F31EEC00AB0EE17
:104DC000C00A10EE100AB84207DC09E010EE900AA3
:104DD0000A4F3844B0F1D97F02D901FA02F00443F6
:104DE000521C032AC8DB2046F8BD0000300000201A
:104DF0000000803754E3853F295C0F3E0000E0BE91
:104E000000B5024600F00DF80346D01C00F009F88A
:104E100043EAC003901D00F004F843EA801080B21A
:104E200000BD90F90010002902DD4FF0000070472E
:104E300002DA4FF00400704790F90110002902DDFA
:104E40004FF00100704702DA4FF00500704790F90B
:104E50000200002802DD4FF00200704702DA4FF036
:104E6000060070474FF007007047FBF79BFEFDF709
:104E70007BFDFDF7DBF9FDF745FBFDF77BFBFDF760
:104E80004DFAFDF75BFBFDF721FBFDF7B3FAFDF7EC
:104E9000E7FAFDF795FBFDF790FBFCE77047000094
:104EA0002DE9F041124C20F00101002594F8240076
:104EB00010B10020BDE8F081A07A4FF0FF3668B154
:104EC0000840277C2074884200D0354641B101203B
:104ED00000F04EFF00F09EFB38B127743046E9E742
:104EE000207D00B1012000F043FF2846E2E70000EA
:104EF0003000002070B50D462DED0C8B8EB00646AF
:104F00000CA902A81446F7EE00BACDE900010BABDC
:104F100003AA09A907A8FFF7A3F920B101200EB041
:104F2000BDEC0C8B70BDBDF80800C0057ED59DEDB5
:104F3000030AF8EEC00A9FED450AB0EE00CA60EE23
:104F4000809ADDED040AF8EEE00A69EE8CCA20EEE4
:104F5000808ADDED050AF8EEE00A60EE808ADDED7C
:104F6000060AF8EEE00A20EE809AB8EE000A28EE73
:104F700000BA2BEE090A0CEEA80A10EE100AFBF795
:104F800039FB41EC100BFEF7BFF89FED31AB51EC54
:104F9000100B53EC1A2BFBF73BFAFBF73EFB2BEE07
:104FA000080A28EE8CDA30600DEE680A30EE2B0A23
:104FB00010EE100AFBF71EFB2DEE090A41EC1B0B4D
:104FC0000CEE880A10EE100AFBF714FB41EC100BF4
:104FD000B0EE4B1AF0EE6B1AFEF7B2FB53EC1A2B45
:104FE00051EC100BFBF714FAFBF717FB29EEA90A9B
:104FF000286008EE080A08EEE80A09EE490A10EEF1
:10500000100AFBF7F7FA28EE280A41EC1B0B09EE11
:10501000890A20EE0C0A10EE100AFBF7EBFA41ECBD
:10502000100BB0EE4B1AF0EE6B1A00E00CE0FEF73E
:1050300087FB53EC1A2B51EC100BFBF7E9F9FBF74C
:10504000ECFA206000206AE7022068E70000803068
:105050006666666666A64C4010B5FCF7CBFE00F0AF
:10506000F7F808B10A2010BD782000F0B7FD10F065
:10507000FF0F01D0012010BD7820FFF711FF10F0C5
:10508000FF0F01D0022010BD642000F067FD10F07A
:10509000FF0F01D0032010BDFFF7D8F810F0FF0F6D
:1050A00001D0042010BD1448FFF7AAFEFFF780FAD4
:1050B00010F0FF0F01D0052010BD40F27310FEF775
:1050C0009DFF10F0FF0F01D0062010BD6420FFF7F8
:1050D000D7F910F0FF0F01D0072010BD00F004FE3B
:1050E00008B1082010BD012000F05EFC10F0FF00A8
:1050F000F8D0092010BD00005C0000200D494A7A5C
:1051000042B1012A08D0022A0FD0032A0FD04FF053
:10511000FF307047022200E004220270C97C11B106
:105120001106C90D0170002070470822F5E7102212
:10513000F3E70000300000200F494A7A42B1012A0B
:1051400009D0022A11D0032A12D04FF0FF30704745
:105150004FF4804201E041F69C720280C97C11B19B
:10516000C2F34E010180002070474FF48052F4E7F3
:105170004FF40062F1E70000300000200B49097A8B
:1051800039B1012907D002290AD003290BD0002107
:1051900003E0FA2101E04FF4FA710180002070472A
:1051A0004FF47A71F9E74FF4FA61F6E73000002026
:1051B0000D49097A41B1012909D002290DD00329ED
:1051C0000ED04FF0FF3070479FED080A01E09FEDD1
:1051D000080A80ED000A002070479FED060AF8E7F4
:1051E0009FED050AF5E700003000002000000343B2
:1051F0000000834233330342333383410C49C97A7D
:10520000072913D2DFE801F01204060A0C0E100081
:10521000BC2100E062210180002070472A21FAE7CA
:105220001421F8E70A21F6E70521F4E70021F2E767
:1052300030000020054991F8242012B14FF0FF30D2
:105240007047C989018000207047000030000020AD
:105250002DE9FC414C4C80208DF8000020686B4605
:105260000122817C60680078FCF7B6FF4FF0FF37C1
:10527000002832D16420FBF773FB00258DF8005025
:1052800020686B460122817C60680078FCF7A4FFEF
:10529000002870D120686B460622817D6068007806
:1052A000FCF760FF002866D19DF805009DF803100B
:1052B000C007400F01F0010140EA41019DF80100E3
:1052C0004FF0010600F00100014309D0012905D08B
:1052D000022915D02DA0FDF7DFFE4CE0E67410E0AA
:1052E00020686B460122C17860680078FCF73AFFBD
:1052F00040BB9DF8000010F00F0020D0042822D001
:10530000E574FF2004F80A0F4FF6FF7104F8020C51
:1053100004F8010C6070A180A0712072A67026763E
:105320006576E572A572E56025616561A576E5762D
:10533000A5834FF4FA6000F073FB18B907E01D482D
:10534000FDF7AAFE17E01CA0FDF7A6FEC6E70220A7
:1053500000F088FA78B92A2000F0CAFB58B9322048
:1053600000F0FCFB38B90020FFF79AFD18B90020C7
:1053700000F0ACFA10B13846BDE8FC81002000F026
:105380002DFC0020F8E7000030000020556E7375FA
:1053900070706F7274656420736F66747761726584
:1053A0002070726F64756374207265762025642E98
:1053B0000A000000E86B000848616C662073656EA7
:1053C0007369746976697479207061727420666F8C
:1053D000756E642E0A0000002DE9FF4FDFF89480FF
:1053E000064685B098F8250015460F464FF0FF3960
:1053F000B0BBAFB3002420E0301B102800DD10202C
:1054000080B283463A1901469246204600F042FC9B
:1054100030BB6A465946204600F0D2F800BB5046E1
:105420005A466946FAF740FF20B16FF0010009B013
:10543000BDE8F08F04EB0B0084B2B442DCD3280A41
:105440008DF810008DF81150D8F80000444604ABD8
:10545000817ED8F8040002220078FCF7BDFE08B176
:105460004846E4E7012084F825000898E0840020FD
:10547000DDE70000300000202DE9F84305464FF03D
:10548000FF39282844D80727284C00267DB1012061
:1054900000F0FCFA20208DF800004FF00108012DEB
:1054A00017D0052D18D88DF8018005201FE00020A9
:1054B00000F0ECFA8DF800608DF8017020686B4602
:1054C0000222817C60680078FCF786FE00BB2675AE
:1054D00029E08DF80160E8E7142D04D802208DF84A
:1054E00001000A2003E003208DF80100142000F0E1
:1054F000FFFA9DF801006B4607EB80108DF8010064
:1055000020680222817C60680078FCF765FE10B19B
:105510004846BDE8F8830820A072267384F81480FA
:105520000020FFF7BDFC0020F3E700003000002062
:105530002DE9F843214C0646174694F82400894685
:105540004FF0FF3890B3A07A80B320686B460222F8
:10555000817A60680078FCF705FE38BBBDF8000072
:1055600045BAB54202D2002038701FE06068418819
:10557000B5EB510F11D9216800786B46497C0122A7
:10558000FCF7F0FD90B99DF80000C00605D500F0CD
:1055900041F86FF00100BDE8F8832068F2B24B4695
:1055A000C17A60680078FCF7DDFD08B14046F2E79B
:1055B000B5FBF6F0401E38700020ECE7300000200C
:1055C000F8B516000D464FF0FF371FD0104CA17AEA
:1055D000E1B1010A8DF80010C0B28DF80100411947
:1055E00060684289914211D8216800786B46097E33
:1055F0000222FCF7F1FD48B92068EAB23346417D4A
:1056000060680078FCF7AEFD002800D03846F8BD91
:1056100030000020F8B5564C4FF0FF36A07A002835
:105620007DD000258DF8005020686B460122C17B9B
:1056300060680078FCF7D0FD002870D120686B46C8
:105640000122417960680078FCF7C6FD002866D128
:1056500020686B460122017960680078FCF7BCFD88
:1056600000285CD194F82400E0B30C208DF80000F1
:1056700020686B460122017960680078FCF7ACFD78
:10568000002872D13220FBF76BF9C0208DF80000A2
:10569000A07AC00702D0E0208DF8000020686B4699
:1056A0000122017960680078FCF796FD00285CD142
:1056B000607C18B102208DF8000001E08DF80050E8
:1056C00020686B460122C17B60680078FCF784FD8E
:1056D00028BB8DF8005020686B4601224179606834
:1056E00000783EE0FFE704208DF8000020686B465C
:1056F0000122017960680078FCF76EFD78B9A07C22
:1057000090B9A07AC0070FD05FF060008DF800005C
:1057100020686B46012201796068007800E024E08F
:10572000FCF75AFD08BB01E04020EFE73220FBF711
:1057300017F9607C18B101208DF8000001E08DF8A8
:10574000005020686B460122C17B60680078FCF73E
:1057500043FD50B92068064B01224179606810333F
:105760000078FCF739FD002800D03046F8BD000075
:10577000300000202DE9F047394C82468AB094F879
:1057800024000F4620B1002000F00EF9012600E0B1
:10579000002607A8FFF7F2FC06A8FFF7AFFC09A850
:1057A000FFF72CFD08A8FFF745FD94F80A9094F840
:1057B00010800025002239465046FFF72DF910B120
:1057C0006D1C022DF6DB022D1AD00025012203A943
:1057D0006846FFF721F910B16D1C022DF6DB022D92
:1057E0000ED003A93846FEF79BFBC7B26946504668
:1057F000FFF79CFA10F0FF0F4FF0000502D002E017
:10580000002503E001250FB945F00205FF202072B5
:105810006072E0724FF6FF71E181A0722074012086
:105820002073BDF81C0000F0FBF89DF8180000F094
:1058300019F8BDF8240000F05BF9BDF8200000F075
:105840008DF9484600F0CAF94046FFF729FB16B12A
:10585000012000F0A9F80AB02846BDE8F087000052
:105860003000002038B5184C4FF0FF35A17A19B33D
:10587000022806D0042806D008280ED010281BD1F4
:105880000DE0002000E008208DF80000607A9DF80F
:105890000010B0EBD10F04D005E01020F4E7182081
:1058A000F2E7002038BD20686B460122C1796068AC
:1058B0000078FCF791FC08B1284638BD9DF800003F
:1058C000C0086072EDE7000030000020F8B5354CEC
:1058D0000546A07CA84201D10020F8BD31484FF018
:1058E000FF366B46D0E900104FF0010209790078CD
:1058F00035B3FCF737FC70BB9DF800006B4620F019
:1059000020008DF80000206801220179606800788D
:10591000FCF762FCF8B90320FBF722F802208DF8AF
:10592000000094F8220078B382202BE020686B46B8
:105930000122017D60680078FCF74EFC58B92EE02A
:10594000FCF710FC38B9A07AC0079DF8000003D01E
:1059500040F0200002E00CE020F020008DF8000074
:1059600020686B460122017960680078FCF734FCFE
:1059700008B13046F8BD0320FAF7F2FF94F8220090
:1059800000B180208DF8000094F823000028CDD0CD
:105990009DF8000040F030008DF80000C6E7A574C7
:1059A0009AE700003000002038B51C4C94F8241011
:1059B00081421DD0002500B394F82500D0B100200D
:1059C00000F0D6F90020FFF781FFE08C00F0C6F868
:1059D0008DF8005060686B46012200782321FCF7A7
:1059E000FBFB012084F8240000F0C2F9FFF712FE4F
:1059F000002038BD4FF0FF3038BD002000F0B8F96E
:105A0000207C8DF8000060686B460122007823211D
:105A1000FCF7E2FB84F82450E8E7000030000020A7
:105A200038B5194C4FF0FF35A17A31B3FA2809D0B7
:105A3000B0F5FA7F08D0B0F57A7F0FD0B0F5FA6FE5
:105A40001BD10DE0002000E008208DF80000207A36
:105A50009DF80010B0EBD10F04D005E01020F4E762
:105A60001820F2E7002038BD20686B4601228179BA
:105A700060680078FCF7B0FB08B1284638BD9DF897
:105A80000000C0082072EDE73000002038B5174C48
:105A9000054694F82300A84201D1002038BD0DB17D
:105AA000302000E000208DF80000A07C28B19DF897
:105AB000000040F002008DF8000094F8220028B1A8
:105AC0009DF8000040F080008DF8000020686B46D3
:105AD0000122017D60680078FCF77EFB10B14FF079
